:020000040000FA
:06000000E5EF1FF0120005
:06100000E5EF1FF01200F5
:081008009EA228EF1DF09E924C
:0610100017EF08F01200CA
:021016001200C6
:0610180028EF1DF012009C
:0E1020000100E63F0000D301000004000000C4
:02102E0042700E
:1010300042A011005B3E04D05C5005E08B8C05D0D3
:101040005C505B6402D05C3C8B9C82BAFED782AA67
:10105000FED78B8282BAFED782AAFED7000000009C
:101060008B9242AC11000000439E000082BE438E72
:10107000000000000000000000000000439C000091
:1010800082BE438C00000000000000000000000051
:10109000439A000082BE438A000000000000000066
:1010A000000000004398000082BE4388000000005A
:1010B00000000000000000004396000082BE43864E
:1010C0000000000000000000000000004394000049
:1010D00082BE438400000000000000000000000009
:1010E0004392000082BE4382000000000000000026
:1010F000000000004390000082BE43800000446A6C
:10110000456A466A43AE03D04468456846680001B4
:101110004D50516E4E50526E4F50536E5050546E53
:1011200049504D6E556E4A504E6E566E4B504F6E36
:10113000576E4C50506E586E50AE0BD0551E561E0A
:10114000571E581E552AD8B4562AD8B4572AD8B490
:10115000582A55504702F350006FF450016F575012
:101160004702F350026FF450036F58504802F35097
:10117000046FF450056F56504702F3500127F450A6
:101180000223E86A03230423052358504702F3503F
:101190000327F4500423E86A052355504802F3500E
:1011A0000127F4500223E86A032304230523565041
:1011B0004802F3500227F4500323E86A042305236E
:1011C00057504802F3500327F4500423E86A0523DC
:1011D000D8900037013702370337043705370551F8
:1011E0004C6E04514B6E03514A6E0251496E50AE23
:1011F0000BD0491E4A1E4B1E4C1E492AD8B44A2AFF
:10120000D8B44B2AD8B44C2A5150495E52504A5A4D
:1012100053504B5A54504C5A4350492644504A223A
:1012200045504B2246504C224006000E415A405039
:10123000411003E1428A429C0000000011001200AC
:10124000D9CFE6FFE1CFD9FFFD0EDBCF59F0FE0E7F
:10125000DBCF5AF059505A1002E00400FBD7E55298
:10126000E7CFD9FF1200AC6AAB6AB86AAC84190E3A
:10127000AF6EAB8EAC8A1200FEEC12F0FE0EDB50AD
:10128000A96EA69EA69CA680A85003EF13F0D9CF06
:10129000E6FFE1CFD9FFFD0EDB50A96EFE0EDB505D
:1012A000A86EA69EA69CA684F29E550EA76EAA0EB8
:1012B000A76EA682A6B2FED7A694F28EE552E7CF1D
:1012C000D9FF12006CEC14F0FE0EDBCF01F001C070
:1012D00000F00150DF6EE7EC13F0010E00C0DBFF01
:1012E000FC0EDBCFE6FFDFCFE6FFD1DFE552E552B4
:1012F000FC0EDB28E66E010EDBCFE6FFC8DFE55211
:10130000E552020EE15C02E2E16AE552E16E03EFB2
:1013100013F06CEC14F0FE0EDBCFE6FFADDFE55210
:10132000DF6EFE0EDB281CEC13F0E76E010EE7CF3C
:10133000DBFFDF50026E036A036E026A010EDB50B0
:1013400000010224006E000E0320016E00C0F3FFB6
:10135000F46E020EE15C02E2E16AE552E16E03EF37
:1013600013F0FEEC12F09EA8FED7FE0EDB50AD6E21
:1013700003EF13F00D0EF2EC12F00A0EF2EF12F082
:10138000FEEC12F0FE0EDB50090804E2FE0EDB500C
:10139000370F03D0FE0EDB50300F03EF13F0FEECDF
:1013A00012F0FE0EDB380F0B0F0B0101246FFE0E47
:1013B000DB500F0B256F24C1E6FFE2DFE552F2ECB4
:1013C00012F025C1E6FFDCDFE552F2EC12F003EF8C
:1013D00013F0FEEC12F0FE0EDBCF01F001C000F0C6
:1013E000016A0050E66EDBDFE552E7EC13F00050D7
:1013F000E66ED5DFE552200EF2EC12F003EF13F0AB
:10140000FEEC12F00101C46BC56BC66BE15092ECAF
:1014100013F004E1300EF2EC12F032D09AEC13F03B
:1014200009E1F7EC12F0640E005E91EC14F001019A
:10143000C42BF4D7640E64EC14F00101C4079AECD9
:1014400013F009E1F7EC12F00A0E005E91EC14F0D3
:101450000101C52BF4D70A0E64EC14F00101C50795
:101460009AEC13F008E1F7EC12F0000691EC14F09E
:101470000101C62BF5D7010E64EC14F00101C6077B
:1014800003EF13F074EC14F0300E0101C45D02E1BF
:10149000200EC46FDF6A030EDF5C03E254EC14F02D
:1014A000FAD7E55203EF13F074EC14F0010EDF6E7F
:1014B000030EDF5C03E254EC14F0FAD7E55203EFBD
:1014C00013F06CEC14F0640E006E016AD7EC13F0AC
:1014D00000C039F001C03AF026EC16F03450DF6E4F
:1014E000640EDF02F350026E036AD7EC13F0F35080
:1014F000345C006E03503558016E010E00C0DBFFF6
:10150000DFCFE6FFE66ABEDFE552E5522E0EF2ECD3
:1015100012F0010EDBCFE6FFE66AC6DFE552E552C8
:10152000020EE15C02E2E16AE552E16E03EF13F0C4
:101530006CEC14F0DE52800EDD6EDF6A080EDF5CAC
:1015400016E2010EDBCFE6FFFE0EDB50E552E7149C
:1015500002E0310E01D0300EF2EC12F0010EDB4051
:101560007F0BE76E010EE7CFDBFFDF2AE7D7200E08
:10157000F2EC12F0020EE15C02E2E16AE552E16E89
:1015800003EF13F06CEC14F00101010EBA6F020EC0
:1015900015EC13F08B84948482B423D085EC1BF07B
:1015A00082A4FED7F0EC13F0DCEC1BF0F3CFDEFFEF
:1015B000F4CFDDFFDFDE460E7CEC14F0DECFE6FF7D
:1015C000DDCFE6FF45EC14F00101C2050AE10A0E89
:1015D000E66EDECFE6FFDDCFE6FF74DEE552E552D4
:1015E000E5529494020EE15C02E2E16AE552E16E9A
:1015F00003EF13F00101986B996B8D6B8E6B896B08
:101600008A6B966B976B8B6B8C6B876B886B5D6A49
:101610005E6A1200FEEC12F0E15092EC13F007E16A
:10162000010EF36EFD0EF3CFDBFFFE0EDB6AFD0E47
:10163000DBCF9CF1FE0EDBCF9DF101019DC19CF142
:101640009D6B346A010E356E30EC14F0BFEC1FF068
:1016500034C09EF135C09FF19CC19AF19DC19BF1B0
:10166000F7EC12F000C0F3FF01C0F4FF03EF13F03A
:10167000FEEC12F0FD0EDBCF92F1FE0EDBCF93F10C
:1016800085EC14F0F3CF98F1F4CF99F103EF13F058
:10169000FEEC12F0FD0EDBCF94F1FE0EDBCF95F1E8
:1016A00085EC14F0F3CF96F1F4CF97F103EF13F03C
:1016B0006CEC14F00101A751050A26E0010A14E0C0
:1016C000070A28E0010A06E0030A24E1010EE66E9B
:1016D000E66A07D05C501EE18DDF7DC1E6FF7EC16A
:1016E000E6FF80EC14F016D0C75104E0010E95EC33
:1016F00014F004D0010EE66EE66ABADFE552E55258
:101700000101010EC86F06D0FE0EDB50D8808F5548
:10171000E8245C6E020EE15C02E2E16AE552E16EF1
:1017200003EF13F00101A751050A1EE0010A12E0C0
:10173000060A07E0030A01E01200010EE66EE66AFF
:1017400005D058DF7FC1E6FF80C1E6FFA1DFE5528B
:10175000E5521200C8510AE0C75102E0000E01D064
:10176000010EC76FC86B120027EC13F01200FEECDD
:1017700012F0050EE12601017A5127E0D950FD0F44
:10178000E96EFF0EDA20EA6EFF0EEE1802E1FF0EA0
:10179000ED181BE0D95092EC13F017E0F7EC12F0C3
:1017A000D890015004E62C0E005C010E01580DE3A8
:1017B000FD0EDBCF02F0FE0EDBCF03F0033407E2B9
:1017C00002505408240E035402E2000E8FD1006A26
:1017D000016A026A400E036E00C0E6FF01C0E6FF28
:1017E00002C0E6FFE66EDA0E106E0F0E116EC90E25
:1017F000126E400E136ED7EC13F0A1EC14F0F9EC5E
:1018000013F00CEC13F010C033F011C034F012C020
:1018100035F013C036F0B9EC15F002EC14F0386A6C
:101820007C0E396E120E3A6E470E3B6E66EC15F06A
:101830000BEC14F033C0E6FF34C0E6FF35C0E6FF22
:1018400036C0E6FF98EC1FF0E552E552E552E5524E
:10185000E552E7CF03F0E552E7CF02F037EC14F0A2
:1018600032C004F033C005F034C006F035C007F0D4
:1018700032C038F033C039F034C03AF035C03BF0F4
:1018800014EC14F0B9EC15F033C00CF134C00DF1C8
:1018900035C00EF136C00FF1386A396A3A6A470E20
:1018A0003B6EB9EC15F097EC16F034C047F035C03C
:1018B00048F0496A4A6A4B6A4C6A4D6A4E6A4F6AF6
:1018C000506A516A526A536A546A429A060E07EC89
:1018D00013F0F3CF40F0F4CF41F0428C9D9042AA38
:1018E000FED7429C9D8054EC13F00BEC14F054ECAA
:1018F00013F002EC14F00CEC13F008C033F009C044
:1019000034F00AC035F00BC036F0B9EC15F033C036
:1019100004F034C005F035C006F036C007F05EECC8
:1019200013F0F9EC13F05EEC13F033C018F034C090
:1019300019F035C01AF036C01BF00CEC13F014C0CF
:1019400033F015C034F016C035F017C036F0B9ECDE
:1019500015F033C010F034C011F035C012F036C0AD
:1019600013F00CEC13F004C033F005C034F006C0E3
:1019700035F007C036F0D0EC14F033C000F034C0BE
:1019800001F035C002F036C003F054EC13F033C060
:1019900024F034C025F035C026F036C027F05EECC8
:1019A00013F033C028F034C029F035C02AF036C017
:1019B0002BF00CEC13F024C033F025C034F026C01B
:1019C00035F027C036F0B9EC15F033C020F034C044
:1019D00021F035C022F036C023F00CC138F00DC123
:1019E00039F00EC13AF00FC13BF0B9EC15F033C03D
:1019F0001CF034C01DF035C01EF036C01FF00CECDA
:101A000013F014EC14F0CFEC14F033C008F134C030
:101A100009F135C00AF136C00BF1C6EC16F032C040
:101A2000DEFF33C0DEFF34C0DEFF35C0DDFFDD5238
:101A3000DD524AEC14F0EECF00F0EECF01F0EECF25
:101A400002F0EFCF03F00C0E3EEC14F0FDE1ACEC35
:101A500013F0FD0EDBCF04F0FE0EDBCF05F0B00E71
:101A60000426040E0522066A076A04C032F005C087
:101A700033F006C034F007C035F0DFCF37F0010E89
:101A8000DBCF38F0020EDBCF39F0030EDBCF3AF0BC
:101A9000CCEC13F00B0E3EEC14F0FDE1ACEC13F0CB
:101AA0004AEC14F0D880FF0EEE54000EEE54000EF7
:101AB000EE54000EEE5406E2DE68DE6ADE6ADD6A8F
:101AC000DD52DD52000EDB50E76E040EE7CFDBFF88
:101AD000DBCF00F001018F51D880005405E2040EE5
:101AE000DBCFE6FFE5DDE552040EDB50006E050EB0
:101AF000E15C02E2E16AE552E16E005003EF13F0AF
:101B0000080E07EC13F0F3CF6CF1F4CF6DF1200E5B
:101B100007EC13F0F3CF6EF1F4CF6FF1220E07EC68
:101B200013F0F3CF70F1F4CF71F1240E07EC13F042
:101B3000F3CF72F1F4CF73F1260E07EC13F0F3CF6D
:101B400074F1F4CF75F1280E07EC13F0F3CF76F1B2
:101B5000F4CF77F12A0E07EC13F0F3CF78F1F4CF3E
:101B600079F1100E07EC13F0F3CF10F1F4CF11F16F
:101B7000120E07EC13F0F3CF12F1F4CF13F1140EA1
:101B800007EC13F0F3CF14F1F4CF15F1160E07ECB8
:101B900013F0F3CF16F1F4CF17F1180E07EC13F092
:101BA000F3CF18F1F4CF19F11A0E07EC13F0F3CFBD
:101BB0001AF1F4CF1BF10C0E07EC13F0F3CF8FF1F9
:101BC0000E0E07EC13F0F3CF90F11200FEEC12F0C2
:101BD00097DFF7EC12F001016E51001805E16F512B
:101BE000011802E1100E31D0F7EC12F0705100181C
:101BF00005E17151011802E1120E27D0F7EC12F045
:101C00007251001805E17351011802E1140E1DD044
:101C1000F7EC12F07451001805E17551011802E15A
:101C2000160E13D0F7EC12F07651001805E177513B
:101C3000011802E1180E09D0F7EC12F078510018E3
:101C400010E1795101180DE11A0EE66EFB0EDBCFA3
:101C5000E6FFFC0EDBCFE6FF62EC09F0E552E55251
:101C6000E55203EF13F001016AC183F1846BFF0EAB
:101C70008317000E84170A0E8403F3CF84F18303C5
:101C8000F3CF83F1F4508427FF0E6915856F866BBF
:101C90000A0E8603F3CF86F18503F3CF85F1F45066
:101CA00086271200FEEC12F027EC13F00A0E15EC5A
:101CB00013F05D6A5E6AFE0EDBCF81F19BDC0101F1
:101CC000010EA06FD0DF03EF13F0FEEC12F0010164
:101CD000C16BA2EC13F0030F21EC13F0EFCF02F075
:101CE000A2EC13F0020F21EC13F0EFCF01F08BEC1C
:101CF00014F0EFCF00F0A2EC13F021EC13F0EF5052
:101D000000100110021030E07A6B5C5108E0A2EC88
:101D100013F021EC13F0EF5002E0010EC16F5D51A2
:101D200006E08BEC14F0EF5002E0010EC16F585149
:101D300009E0A2EC13F0020F21EC13F0EF5002E0E7
:101D4000010EC16F595109E0A2EC13F0030F21EC11
:101D500013F0EF5002E0010EC16FC15104E0E668DC
:101D6000A7DCE55201D0DEDC03EF13F00EEC1CF033
:101D7000060E01016B5D01E0CDD0C2DE0101671DE1
:101D800001E1681D2CE06C51671902E16D51681981
:101D900026E06E51671902E16F51681920E0705119
:101DA000671902E1715168191AE07251671902E16D
:101DB0007351681914E07451671902E1755168197B
:101DC0000EE07651671902E17751681908E0785101
:101DD000671901E087D07951681901E083D0665115
:101DE000110A01E177D0010A71E01F0A6DE0010AD2
:101DF00069E0030A65E0010A57E0070A45E0010AC5
:101E000041E0030A3CE0010A32E00F0A28E0010A3F
:101E100024E0030A19E0010A0FE0070A06E0010ABC
:101E200061E0030A5FE0010A5DD07A6BFAEC0AF028
:101E300078EC13F05C6856D07A6B78EC13F0325083
:101E4000331050E15C6A4ED026EC14F067C1E6FF17
:101E500068C1E6FFBBDEE55208D00C0E01D00E0EC5
:101E6000E66E26EC14F062EC09F0E55204D026ECA4
:101E700014F075EC1BF0E552E55242DE33D0010E52
:101E80007A6F2CD07A6B27D0010E7B6F7C6BEBDEE8
:101E9000FAEC0AF0DCDB83C17DF184C17EF185C1FF
:101EA0007FF186C180F11ED07B6B7C6BFAEC0AF06F
:101EB000CEDB010E01017D6F7E6B7F6F806B12D0D8
:101EC000010E05D0020E03D0030E01D0040EE66E03
:101ED000E9DE07D0816BFAEC0AF0010E95EC14F004
:101EE000E552E5520101C35115E06651170A0DE0B4
:101EF000010A09E0030A05E0010A01E01200E66AAE
:101F000006D0010E03D0020E01D0030EE66EDDDE18
:101F1000E552120012006D0E376E4E0E386EC60E70
:101F2000396E410E3A6ED3C132F0D4C133F0D5C10F
:101F300034F0D6C135F02DEC1FF02EC0D3F12FC0F8
:101F4000D4F130C0D5F131C0D6F1390E0101D3271B
:101F5000300ED423000ED523D623D5C100F0D6C130
:101F600001F00001026A036A0050120047DB040E10
:101F7000E126D1DF026E036A346E03C035F030EC27
:101F800014F079EC16F032C0DFFF010E33C0DBFF36
:101F9000020EDB6A030EDB6A4AEC14F0EECF04F0AB
:101FA000EECF05F0EECF06F0EFCF07F005C000F062
:101FB00006C001F007C002F00001036A0A0E002605
:101FC000000E0122022203220A0E376E386A396A95
:101FD0003A6A00C032F001C033F002C034F003C0EE
:101FE00035F0DADB2EC0DFFF010E2FC0DBFF020E63
:101FF00030C0DBFF030E31C0DBFFDFCF00F0010E8E
:10200000DBCF01F000C0F3FF01C0F4FF040EE15C80
:1020100002E2E16AE552E16EF6D26CEC14F00101E5
:1020200081050CE1A0510AE083C189F184C18AF1E4
:1020300085C187F186C188F1010E9ADB020E01018C
:10204000815D22E1A05120E0010E896F8A6B0A0EAA
:10205000346E356A85C139F086C13AF079EC16F0F4
:1020600032C087F133C088F1A9DB32C094F133C0AC
:1020700095F1A4DB32C092F133C093F132C0E6FF98
:1020800033C0E6FF80EC14F0030E0101815D0BE12B
:10209000A05109E0D2DBF3CF89F1F4CF8AF136DB2E
:1020A000010E010165DB040E0101815D33E1A051E8
:1020B00031E0C3DBF3CFDEFFF4CFDDFF010E010122
:1020C000896F8A6B23DBDECF92F1DDCF93F1020EB5
:1020D000396E3A6A92C134F093C135F026EC16F0AD
:1020E00034C092F135C093F1DECF94F1DDCF95F19C
:1020F000020E396E3A6A94C134F095C135F026EC7F
:1021000016F034C094F135C095F192C1E6FF93C149
:10211000E6FFF6DB020EE15C02E2E16AE552E16E07
:1021200072D2DADBAAEC1BF00101A451026E036A41
:10213000A351006E016AA3C134F001C035F0A4C1FF
:1021400039F003C03AF04CEC16F032C0DEFF33C079
:10215000DDFFA5DB013407E20050FF08000E01544B
:1021600002E2DE68DD6ADFCFA6F101018F51D8807F
:10217000A65505E2A6C1E6FF58EC0BF0E5520101B9
:102180009151A65D02E292EC0BF0020EE15C02E2DC
:10219000E16AE552E16E37D2BFC100F0C0C101F083
:1021A000030E396E3A6ABFC134F0C0C135F0BFECDE
:1021B0001FF030C000F031C001F03050311003E1A9
:1021C0000101030EBA6F10C1E6FF11C1E6FFBFDACD
:1021D00001011C6F12C1E6FF13C1E6FFB8DA01016D
:1021E0001D6F14C1E6FF15C1E6FFB1DA01011E6FD4
:1021F00016C1E6FF17C1E6FFAADA01011F6F18C179
:10220000E6FF19C1E6FFA3DA0101206F1AC1E6FF5C
:102210001BC1E6FF9CDA0101216F91511C5D11E2A7
:1022200091511D5D0EE291511E5D0BE291511F5DBA
:1022300008E29151205D05E29151215D02E292ECAC
:102240000BF01200DBD9E652DF6AFE0EDB50DF5CDA
:1022500004E22A0EC7D9DF2AF8D7E552D4D101010A
:102260006B6B666B676B686B5C6B5D6B586B596B0C
:102270001200BAEC09F0520EB5D9530EB3D9530E71
:10228000B1D9490E39DB0101A3512ADB530EAAD97A
:102290004E0EA8D9520E30DB0101A45170EF14F09C
:1022A000ADD9060EE1267E6A7F6A93688A68429EEF
:1022B000429CCDD9800E946E850ECD6ED10ECF6E20
:1022C000200ECE6E9F809D807C0ECA6E0F0EBD6E5E
:1022D000010EB96E090ECB6EB66A800EB76E050E92
:1022E000BE6E9F829D82F28CD08EF28E33EC09F00E
:1022F000BAEC09F0560E76D9010E9ED9300F72D97C
:102300002E0E70D9020E98D9300F6CD9BAEC09F0A4
:10231000490E68D9B6EC1AF0520E64D9CDEC1AF019
:10232000640E83D9500E5ED98BEC1BF0640E7DD900
:10233000530E58D966EC1BF0640E77D9540E52D95F
:102340000A0E65D9C5D92C0E77D9E66EE66A90ECEF
:102350001CF0E552E552E552E5520A0E58D9B8D9BB
:1023600094DABAEC09F0440E3DD9C2EC1BF0520EDF
:1023700039D906EC1CF0C80E58D98B9C429A429C65
:10238000429E0101A16B7A6B816BC36B1E0E54D907
:1023900078D904E6020E005C000E015805E2010E39
:1023A00001017D6F7E6B05D0ECD932C07DF133C069
:1023B0007EF11F0E41D965D904E6020E005C000EC5
:1023C000015805E2010E01017F6F806B05D0D9D95C
:1023D00032C07FF133C080F11C0E2ED9006E016A2D
:1023E000016E006A00C0E6FFE66E1D0E25D93FDAD9
:1023F00001010024696F000E01206A6FDE6ADD6A48
:102400004EDAD890015004E6100E005C000E015820
:1024100015E245DA300E00240FD9E66EDECFE9FF73
:10242000DDCFEAFFA90EE926010EEA22E552E750C8
:10243000EF6EDF2A010EE4E3DB2AE2D7040EFCD8BC
:102440000101A76F030EF8D80101A26F2D0EF4D879
:102450000101A86F2E0EF0D80101C26FA251080A27
:1024600021E00F0A1DE0010A18E0030A13E0010A47
:102470000CE0070A08E0010A04E0030A15E1010E76
:1024800005D0020E03D0030E01D0040EE66E0ADC66
:10249000E5520AD0010EA16F07D0010E7A6F04D069
:1024A0007A6B02D0010EC36F80EC0DF0FF0E0101BC
:1024B0006C250101D36F150E01016D210101D46F4F
:1024C000D56BD66B5C68E80E5D6E030E5E6E88D9C8
:1024D000BAEC09F0010190518F5D916F01018151BA
:1024E00001E09BDD0101A15101E01BDE01017A51F8
:1024F00002E052DE02D00A0E98D838DC0101A85161
:10250000050A40E0010A36E0070A26E0010A0CE06D
:10251000020A02E0010A4EE1BAEC09F001011C5185
:10252000A9D81CC1E6FF2CD0515144E0BAEC09F007
:102530005EC1E6FF5FC1E6FF8ED960C1E6FF61C103
:10254000E6FF89D962C1E6FF63C1E6FF84D964C1B1
:10255000E6FF65C1E6FF0AD0060E6B5D2BE1E9D907
:1025600067C1E6FF68C1E6FF76D970D9E9EC09F0EA
:10257000E5521FD07EDE0101A651B2D9A6C1E6FF09
:1025800061DE17D0060E6B5D15E1D3D95CC1E6FFA5
:1025900098EC0AF0E5525DC1E6FF98EC0AF0E552CE
:1025A00058C1E6FF98EC0AF0E55259C1E6FF98ECF5
:1025B0000AF0E55254DEC2EC0AF00101BF2B000E16
:1025C000C023F40ED880BF55010EC05501E386D755
:1025D000BF6BC06BAAEC1BF04CDEDCEC1BF078D8B8
:1025E00054D97CD7E66EB1EC09F0E5521200FD0E2D
:1025F000DBCF00F0FE0EDBCF01F01200D9CFE6FFFB
:10260000E1CFD9FF1200E552E7CFD9FF1200E66E05
:1026100089EC09F0E552120033C038F034C039F0CB
:1026200035C03AF036C03BF01200E66EE66A20ECA8
:1026300009F0E552E5521200E66E3CEC09F0E55275
:102640001200EA6AA90FE96E010EEA221200010ED9
:102650006CD9E552E5521200FD0E00C0DBFFFE0E04
:1026600001C0DBFF1200DF50EA6AC40FE96E010E01
:10267000EA221200E66EE66A42EC0AF0E552E55202
:102680001200E66ED950040FE96EDACFEAFFE55288
:10269000E750EE6EED6A040EDBCF00F0050EDBCFE7
:1026A00001F0D890015012004DC032F04EC033F00E
:1026B0004FC034F050C035F0B6EF14F051C032F0D6
:1026C00052C033F053C034F054C035F0B6EF14F0BC
:1026D000F3CF00F0F4CF01F0F3CFE6FFF4CFE6FF45
:1026E0001200FD0EDBCFE6FFFE0EDBCFE6FF120091
:1026F0000A0E346E356A69C139F06AC13AF079EC74
:1027000016F032C05DF033C05EF0120085C1E6FF06
:1027100086C1E6FF2BDCE552E552F3CF87F1F4CF1B
:1027200088F11200FD0FE96EFF0EDA20EA6EEE501E
:10273000ED101200FD0EFE0EDBCF01F00001800E49
:1027400001141200FE0EDB50040DF3501200B7EC22
:102750000BF0E552E552120000C0DFFF010E01C090
:10276000DBFF020E02C0DBFF030E03C0DBFF120023
:10277000946F956B926F936BE66E93C1E6FF80EF5B
:1027800014F00A0E346E356A040EDBCF39F0050EF4
:10279000DBCF3AF04CEF16F02DEC1FF02EC000F01E
:1027A0002FC001F030C002F031C003F01200FD0E66
:1027B000DBCF34F0FE0EDBCF35F012000A0E346EA4
:1027C000356A83C139F084C13AF079EF16F0FF0E13
:1027D000E76EFD0EDBCF00F0E7500016016A120035
:1027E000D00EE66E070EE66E20EC09F0E552E552DB
:1027F000120033C014F034C015F035C016F036C0E6
:1028000017F0120033C00CF034C00DF035C00EF0DC
:1028100036C00FF0120033C008F034C009F035C0E4
:102820000AF036C00BF0120000C033F001C034F0E3
:1028300002C035F003C036F0120083C1E6FF84C148
:10284000E6FFB6EC0FF0E552E552120069C1E6FF73
:102850006AC1E6FF1200E9EC09F0E552E552120008
:10286000FD0EDBCF39F0FE0EDBCF3AF01200E55261
:10287000E7CF01F0E552E7CF00F01200D890033225
:10288000023201320032E806120061EC0AF0E55231
:10289000E5521200D9CFE9FFDACFEAFF1200DECF0E
:1028A00000F0DDCF01F01200DEDEEF50E66EC0EC8E
:1028B00009F0E552E66ED7DEE552E750EF6ED3DE63
:1028C000EF5090DEDF2A1200E76E91DEE75000261F
:1028D000000E01222CEF13F091DE020EE126120011
:1028E000C9DE200EF2EF12F089DEE652FADE00ECCD
:1028F0000AF0E552E552120075DE3D0EF2EF12F0DD
:1029000038EC0BF0E552E5521200EBDE0AEC0BF06E
:10291000E552E5521200FE0EDB50040DF32821EFC4
:1029200013F0000E015A2CEF13F0E66EE66A48EF42
:0E2930000BF0BAEC09F00101665170EF14F0E3
:02293E002D9ECC
:1029400008D02D9E35AE05D0346C351EE86A352290
:102950002D8E35C02FF034C02EF03F6A3E6A8E0EA9
:10296000306E316A19EF17F02D9E0CD02D9E35AECA
:1029700009D0326C331E341E351EE86A33223422ED
:1029800035222D8E35C02FF034C02EF033C03FF0ED
:1029900032C03EF09E0E306E316A19EF17F03B7E6A
:1029A0002D6A55EC17F06DEC17F02DB6FDEF16F013
:1029B0002DA20AD02DAA03D02DBEFDEF16F02DA416
:1029C00009EF17F006EF17F02DAA05D02DAC09EF8F
:1029D00017F006EF17F02DA00AD02DA808D02DBEB5
:1029E00004D02DA402D012EF17F016EF17F03E6AB4
:1029F000316A3B50365C3D6E10E333C03FF034C06B
:102A00002EF035C02FF036C03CF038C033F039C05E
:102A100034F03AC035F02D3A09D038C03FF039C013
:102A20002EF03AC02FF03BC03CF03D6C2D9E2DBCEB
:102A30002D8E3CC030F02DB045EF17F01A0E3D60E2
:102A400045EF17F0306A366A2DA408D0336C341E77
:102A5000351E361EE86A3422352236222DAC08D0C7
:102A60003F6C2E1E2F1E301EE86A2E222F2230228F
:102A7000326A3D5207E03634353234323332323244
:102A80003D2EF9D733503F2634502E2235502F2279
:102A90003650302232C03EF02D9E30AE0BD03E6C10
:102AA0003F1E2E1E2F1E301EE86A3F222E222F228E
:102AB00030222D8E30A006D0D8802F322E323F32D9
:102AC0003E323C2A3CC030F019EF17F02D6A55EC2D
:102AD00017F06DEC17F02DB6FDEF16F02DA205D016
:102AE0002DBAFDEF16F004EF17F02DBA10EF17F026
:102AF0002DA005D02DB8FDEF16F010EF17F02DB872
:102B000004EF17F0316A7F0E3624306EE86A312206
:102B10003B50305EE86A315A1A0E3C6E366A3E6AA5
:102B20003F6A2E6A2F6A3850335E3950345A3A5011
:102B3000355A000E365A09E73850332639503422B8
:102B40003A503522000E362201D03E8AD8903336D4
:102B5000343635363636D8903E363F362E362F361A
:102B60003C2EE1D7355034103310D8A43E8A19EFEB
:102B700017F02D6A55EC17F06DEC17F02DB6FDEF40
:102B800016F02DA205D02DB8FDEF16F004EF17F0CA
:102B90002DAA05D02DB0FDEF16F004EF17F02DB0E3
:102BA00002D02DA802D010EF17F0316A3B50362426
:102BB000306EE86A31227E0E305EE86A315A3E6A33
:102BC0003F6A2E6A2F6A3A503502F4CF2FF0F3CFC6
:102BD0002EF039503502F3503F26F4502E22000ECD
:102BE0002F223A503402F3503F26F4502E22000E8A
:102BF0002F2238503502F3503E26F4503F22000E6B
:102C00002E222F2239503402F3503E26F4503F2218
:102C1000000E2E222F223A503302F3503E26F4505B
:102C20003F22000E2E222F2238503402F4503E262E
:102C3000000E3F222E222F2239503302F4503E261E
:102C4000000E3F222E222F2219EF17F02C6A3AAEE7
:102C50002FEF16F0396C3A1EE86A3A222C1E35AE78
:102C600037EF16F0346C351EE86A35222C1EBFECA7
:102C70001FF035BE47EF16F02CAE000C346C351E3D
:102C8000E86A3522306C311EE86A3122000C2CBE15
:102C90003EEF16F02D88FF0C35C03FF034C03EF0FB
:102CA00034503902F4CF33F0F3CF32F035503A02DA
:102CB000F4CF35F0F3CF34F03902F3503326F4502B
:102CC0003422E86A35223E503A02F3503326F4505B
:102CD0003422E86A35223AAE72EF16F03E50345E86
:102CE0003F50355A3FAE000C3950345E3A50355A99
:102CF000000C34C03EF034503902F4CF33F0F3CF3F
:102D000032F035503A02F4CF35F0F3CF34F03902D7
:102D1000F3503326F4503422E86A35223E503A020A
:102D2000F3503326F4503422E86A3522000C2D6A21
:102D300055EC17F02DB6A1EF16F02DA20ED02DB444
:102D400005D07F0E356EFF0E346E1FD0800E356EAF
:102D5000346A1BD0356A346A18D02DB0FBD78F0E79
:102D60003660EDD77E0E3664F5D78E0E365C05E004
:102D7000D89035323432362AF8D72DA406D0346CA8
:102D8000351EE86A352235AEE5D712002D6A55ECBE
:102D900017F02DB6D0EF16F02DA20FD02DB407D01E
:102DA0007F0E356EFF0E346E336E326E25D0800E80
:102DB000356E01D0356A000EF6D72DB0FBD7326ADA
:102DC0009F0E3660EBD77E0E3664F4D79E0E365CCF
:102DD00007E0D8903532343233323232362AF6D7E1
:102DE0002DA40AD0326C331E341E351EE86A3322FD
:102DF0003422352235AEDED712007F0E366EFF0E3E
:102E0000356E346E336E12007F0E2DBEFF0E366EA1
:102E100002D07F0E366E800E356E346A336AF3D779
:102E20002DAE04D0800E366E356AF7D7366A356A15
:102E3000F4D72F502E103F103E10F8E031BEF0D7DF
:102E40002FBE0CD030503110EBE0D8903E363F36DC
:102E50002E362F363006D8A03106F2D73150D4E1C5
:102E60003028D2E03EAE11D07F0E3E1402E13FA0EA
:102E70000CD03F2AE86A2E222F2207E3D8802F3277
:102E80002E323F32302A3028BFE03050C9E03FC0F8
:102E900033F02EC034F02F34356E3030366E35328C
:102EA000369E2DBE368E03EF17F03536363602E3EA
:102EB0002D842D7E06E12D80366A356A346A336AA8
:102EC0001200362803E0D88035321200D89035320F
:102ED00002E12D8212002D8612003A363B3602E3C3
:102EE0002D8C2D7E06E12D883B6A3A6A396A386A54
:102EF00012003B2803E0D8803A321200D8903A32D0
:102F0000EAE12D8A12008CEC17F02DB6000C2DB0E2
:102F1000000C2DA4000C010C2D6A55EC17F06DEC83
:102F200017F02DB612002DAE08D02DA004D02DA87C
:102F300002D02D8012002D9012003B50365C0BE128
:102F40003A50355C08E13950345C05E13850335C67
:102F500002E12D801200D8A002D02D8E10D0365064
:102F60003BC036F03B6E35503AC035F03A6E3450C7
:102F700039C034F0396E335038C033F0386E3B50BE
:102F8000365C10E0FF0F09E02D902DB403D02DAE7C
:102F90002D8412002DAE2D9412003B2AD8903A3287
:102FA000393238323850335E3950345A3A50355A03
:102FB00035BEEAD7D890333634363536362EF8D784
:022FC000C8D770
:0E2FC200D9CFE6FFDACFE6FFE1CFD9FFE2CFAD
:102FD000DAFF220EE12402E3E168E652E16ED95005
:102FE000130FE66E000EDA20E66EA8DA50EC1EF043
:102FF000006E060EE15C02E2E16AE552E16E00500D
:10300000E76E0E0EE7CFDBFFDB50840B0CE0210EEA
:103010000101D76FD86B0F0EDB68100EDB68110E45
:10302000DB687F0E6ED08ADA36DA020E32C0DBFF42
:10303000030E33C0DBFF040E34C0DBFF050E35C0CA
:10304000DBFF87DA386A100E396E490E3A6E460E8B
:1030500014DA83EC17F0010A32E07BDA67DA0DDA72
:1030600066EC15F0BFD9060EDBCF33F0070EDBCFD1
:1030700034F0080EDBCF35F0090EDBCF36F0C6ECAE
:1030800016F0B6EC14F0AED964DA060EDBCF08F019
:10309000070EDBCF09F0080EDBCF0AF0090EDBCFFD
:1030A0000BF044DA3B6E08C033F009C034F00AC0BC
:1030B00035F00BC036F048DACFEC14F0C4D9F90E75
:1030C000DB5012E00E0EDB040BE1FA0EDBCF00F05A
:1030D000FB0EDBCF01F0FC0EDBCF02F0FD0E52D178
:1030E00067D93A6AF8D947D00E0EDB0419E10F0E02
:1030F000DB6A100EDB6A800EF36E110EF3CFDBFF7E
:103100003F0EF36E120EF3CFDBFF0F0EDBCF00F09E
:10311000100EDBCF01F0110EDBCF02F0120E32D118
:10312000190EDB6A45D9800E3A6ED5D9006A016A5C
:10313000026A3F0E036ED950060FE96E000EDA20C8
:10314000EA6EEECF33F0EECF34F0EECF35F0EFCFC6
:1031500036F000C038F001C039F002C03AF003C0C8
:103160003BF0CFEC14F036C0EDFF35C0EDFF34C0BE
:10317000EDFF33C0EFFFDF50010B0AE0190EDB500B
:1031800002E0000E01D0010EE76E190EE7CFDBFF63
:103190008CD9060EDBCF0CF0070EDBCF0DF0080E3E
:1031A000DBCF0EF0090EDBCF0FF0386A396A490E1B
:1031B0003A6E400E3B6E0CC033F00DC034F00EC0C2
:1031C00035F00FC036F0B9EC15F05CD9A6D995D919
:1031D000CFEC14F077D9060EDBCF14F0070EDBCF5F
:1031E00015F0080EDBCF16F0090EDBCF17F0220E1C
:1031F000386EAA0E396E7D0E3A6E3A0E3B6E14C0D2
:1032000033F015C034F016C035F017C036F0B9EC05
:1032100015F033C010F034C011F035C012F036C0D4
:1032200013F0EDD8CFEC14F00A0E33C0DBFF0B0E19
:1032300034C0DBFF0C0E35C0DBFF0D0E36C0DBFFEC
:10324000D9500A0FE96E000EEAD825D932C000F035
:1032500033C001F034C002F035C003F0386A396A77
:10326000800E3A6E390E3B6E32C033F04FD983EC8C
:1032700017F0010A13E1D9500A0FE96E000EDA20A7
:10328000EA6E020EEECFDBFF030EEECFDBFF040E85
:10329000EECFDBFF050EEECFDBFF68D0E1D80A0EE4
:1032A000DBCF38F00B0EDBCF39F00C0EDBCF3AF072
:1032B0000D0EDBCF3BF0B9EC15F01A0E33C0DBFF7F
:1032C0001B0E34C0DBFF1C0E35C0DBFF1D0E36C0ED
:1032D000DBFF5B0E336E9C0E346E2E0E356E360E9B
:1032E000366E72D8CFD8220E386EB20E396E4F0EAF
:1032F0003A6EB90E32D99ED83E0E386E870E396EB0
:10330000080E3A6E3C0E29D9DDD8A40E386EAA0EEE
:10331000396E2A0E3A6EBE0E20D91E0E33C0DBFF68
:103320001F0E34C0DBFF200E35C0DBFF210E36C080
:10333000DBFF0A0EDBCF00F00B0EDBCF01F00C0E33
:10334000DBCF02F00D0EDBCF03F08AD81E0EDBCFF1
:1033500038F01F0EDBCF39F0200EDBCF3AF0210E14
:10336000DBCF3BF0F1D8D0EC14F06DD8190EDB5068
:1033700008E09BD8386A396A800E3A6EBF0EF0D8E2
:1033800003D042D8DBCF03F000C032F001C033F0ED
:1033900002C034F003C035F0220EE15C02E2E16AC3
:1033A000E552E16EE552E5CFDAFFE7CFD9FF120033
:1033B0007CD8830E386EF90E396EA20E3A6E3E0E30
:1033C000CFD8386A396A12001A0EDBCF38F01B0EDC
:1033D000DBCF39F01C0EDBCF3AF01D0EDBCF3BF01C
:1033E000B9EF15F0060E33C0DBFF070E34C0DBFF6C
:1033F000080E35C0DBFF090E36C0DBFF12008DD88A
:1034000000C033F086EF1AF0020EDBCF00F0030E9F
:10341000DBCF01F0040EDBCF02F0050E1200DA2044
:10342000EA6EEECFE6FFEECFE6FFEECFE6FFEFCFA0
:10343000E6FF120033C004F034C005F035C006F0DA
:1034400036C007F01200020E33C0DBFF030E34C09B
:10345000DBFF040E35C0DBFF050E36C0DBFF1200BC
:103460000A0EDBCF33F00B0EDBCF34F00C0EDBCFCC
:1034700035F00D0EDBCF36F012003B6E00C033F09E
:1034800086EF1AF033C008F034C009F035C00AF0F6
:1034900036C00BF0120065EC1FF0E552E552E55224
:1034A000E55212003B6ED0EF14F0020EDBCF04F0B9
:1034B000030EDBCF05F0040EDBCF06F0050EDBCFED
:1034C00007F0120033C000F034C001F035C002F044
:1034D00036C003F012003F0EE5DF97EC16F034C063
:1034E000DEFF35C0DDFF000EDFCF34F0010EDBCF95
:1034F00035F0A1EC14F0F2EF19F004C033F005C080
:1035000034F006C035F007C036F0120001C034F0C8
:1035100002C035F003C036F0120033C038F034C0BA
:1035200039F035C03AF036C03BF01200DB0E386E91
:103530000F0E396EC90E3A6E400E1200D950FA0FB6
:10354000E96EFF0E0FEF1AF0B9EC15F073DFFFEF25
:1035500019F05ADFDBCF03F01200A4DFE4EF19F01B
:0C3560003B6ECBDFB9EC15F062EF1AF007
:04356C00938C938821
:10357000C00EC76E380EC66EC56A1D0EC86EC69EDA
:10358000A196120065D8F3CF00F0F4CF01F0800EC1
:10359000F318F8E10150F6E112008B968B9017DAE0
:1035A0008B8615DA8B8013DAC2EF1AF09E96C580EF
:1035B0009EA6FED79E9612009E96C584C5B4FED7E1
:1035C0009E961200D9D9FE0EDB50C96E9E969EA61D
:1035D000FED7C550400B01E0010E016AF36E01C039
:1035E000F4FF23D2C5869E96C5B6FED7C9501200F9
:1035F00020DA640EDE6EDD6AC58AC5889E969E500E
:10360000080B07E1DAD905E0DF06010EF8E2DB0678
:10361000F6D7D3D9020EE15C02E2E16AE552AAD103
:1036200008DA640EDE6EDD6AC59AC5889E969E50E5
:10363000080B07E1C2D905E0DF06010EF8E2DB0660
:10364000F6D7BBD9020EE15C02E2E16AE55292D103
:10365000F0D9E7D9C7DFDE6EDD6AD1D9DECF00F061
:10366000DDCF01F0800E0016000E011600C0F3FF42
:1036700001C0F4FF020EE15C02E2E16AE5527AD198
:103680007BD9040E7ED9B4D901C000F0016AFF0EC7
:103690000016000E0116020E00C0DBFFFF0EE76EE3
:1036A000A7D9E7500016016A030E00C0DBFFAAD9B4
:1036B000120E53D97AD9020EC7D9030EC5D984D9AF
:1036C000040EE15C02E2E16AE55254D1350EE66E89
:1036D000820EE66E010EE66E020E42D9240EE66EF2
:1036E000E66A020EE66EB0EF1CF046D9020E49D92A
:1036F00089D9200E32D959D9E66A90D965D9020EF6
:10370000E15C02E2E16AE55235D17CD9210E25D98E
:10371000040E21EF1DF076D9010E1FD9E66A7ED97D
:10372000B50E21EF1DF028D9E6527BD9DF6AFE0ED7
:10373000DB04DF5C07E256DFE66EDF5050D970DF56
:10374000DF2AF5D74FDFE66EFE0EDB0448D957D9E6
:10375000E5526BD16ED956D9230E58D929C1A5F19E
:103760002AC1A3F12BC1A4F101012A51006E016A03
:103770002AC1F3FF01C0F4FF020EE15C02E2E16A3C
:10378000E552F8D0430EE66EE66A020EE66E010ED2
:10379000E7D87C0EE66E920EE66E040EE66E010E23
:1037A000DFD8000EE66EE66A050E47D9000EE66E1B
:1037B000E66A060E1DEF1DF0DFD8040EE12622D9C1
:1037C000220E24D901012851026E036A28C103F098
:1037D000026A295100010224006E000E0320016ECE
:1037E000020E00C0DBFF030E01C0DBFF020EDBCFC9
:1037F00000F0030EDBCF01F000C0F3FF01C0F4FFC7
:10380000040EE15C02E2E16AE552B4D0010EE66E1C
:10381000E668020EE66E150EB0EF1CF00101030E15
:10382000B96FF0D8240E99D8010E0BD9FAD8DADE88
:103830000101506F9CD80101516F99D80101526F5D
:1038400096D80101536F93D80101546F90D80101AC
:10385000556F8DD80101566F8AD80101576F87D8EF
:1038600001015C6F84D801015D6F81D80101586F3F
:103870007ED80101596F7BD801015A6FC0D8010170
:10388000535101E1120051514AE054C100F054C1BA
:1038900001F0006A01015551010100245E6F000E24
:1038A00001205F6F56C100F056C101F0006A0101AE
:1038B000575101010024606F000E0120616F5CC14F
:1038C00000F05CC101F0006A01015D5101010024BA
:1038D000626F000E0120636F58C100F058C101F003
:1038E000006A0101595101010024646F000E01209A
:1038F000656F010156390F0B0F0B01016B6F060E3F
:103900006B5D0DE11F0E010157150101666F62C16C
:1039100067F163C168F164C169F165C16AF11200C0
:103920002BD8FD0EDBCFE6FFFE0EDBCFE6FF070E4A
:1039300084D8FB0EDBCFE6FFFC0EDBCFE6FFD5DE47
:10394000E552E552F40EE66E010EE66E20EC09F04B
:10395000E552E55231DFFEDE68D0E66E0EEF1DF077
:10396000E66E8EDEE552E552E552E552120058DE73
:10397000F2EF1AF0E16E59D0D9CFE6FFE1CFD9FFCF
:103980001200E126FE0EDBCF01F001C000F0015075
:10399000DF6EFF0EE76EFD0EDBCF00F0E750001686
:1039A000016A010E00C0DBFF1200E66A37D8DFCFE4
:1039B000E6FF34D8010E24EF1DF0D9CFE9FFDACFAE
:1039C000EAFFEE50ED101200F7DDC2EF1AF0080E1C
:1039D000E66EE66A20EC09F0E552E5521200EA6A6A
:1039E000260FE96E010EEA22E552E750EF6E120053
:1039F000FB0EDBCF00F0FC0EDBCF01F01200F8DD98
:103A0000DCEF1AF0D3DD220EADEF1CF0A6DF010EC5
:103A100018D8080EE66E87DEE5521200D3DDE552B7
:103A20001200C4DD230EADEF1CF0E552E7CFD9FF45
:103A30001200A2DF020EE1261200E66E110EB0EFB8
:103A40001CF08BDFE4EF1CF0DBCFE6FF0EEF1DF088
:103A5000DACFE4FFE2CFDAFFE9CFE4FFEACFE4FF19
:103A6000F6CFE4FFF7CFE4FFF5CFE4FFF3CFE4FFB9
:103A7000F4CFE4FFFACFE4FF00EE2CF0140EE804DC
:103A800003E3EECFE4FFFBD700EE00F02C0EE804DA
:103A900003E3EECFE4FFFBD7E6529EA01BD09E903F
:103AA000D10ECF6E200ECE6E59505A1003E059063B
:103AB000000E5A5A0101B95105E08B98B907B95166
:103AC00001E18B88BA5105E08B94BA07BA5101E144
:103AD0008B8424D8E55200EE2BF02C0EE80403E38F
:103AE000E5CFEDFFFBD700EE3FF0140EE80403E353
:103AF000E5CFEDFFFBD7E5CFFAFFE5CFF4FFE5CF4C
:103B0000F3FFE5CFF5FFE5CFF7FFE5CFF6FFE5CF14
:103B1000EAFFE5CFE9FFE5CFDAFF11000101985197
:103B200099113AE0A06B010E981904E1995102E154
:103B30005C682CD0010E9C1907E19D5105E15C2ABF
:103B4000FF0E5C5C29E122D09C519D1118E19A077F
:103B5000000E9B5B5C50016A9E25006E9F51012206
:103B6000FF0ED8800054000E015402E25C680ED0B3
:103B70005C50006E016A5C509E255C6E0DD083D84F
:103B80000BE389D85C2AFF0E5C5C06E1986B996BAD
:103B900089C18DF18AC18EF18D518E111DE08D0785
:103BA000000E8E5BD8808D55000E8E5515E395C1A5
:103BB0009CF19D6B346A010E356E94C139F095C14C
:103BC0003AF0BFEC1FF034C09EF135C09FF163D8CE
:103BD00094C196F195C197F101019651971139E081
:103BE000010E961904E1975102E15C6A2CD0010E96
:103BF0009C1909E19D5107E15C5025E05C065C5091
:103C0000000827E320D09C519D1114E19A07000E73
:103C10009B5B9E515C5C000E9F550AE35C50036AFF
:103C20009E515C5C006E9F51035800505C6E11D039
:103C30005C6A09D028D804E32ED85C5001E05C0609
:103C40005C50000806E3966B976B87C18BF188C1C7
:103C50008CF18B518C110AE08B07000E8C5BD880A5
:103C60008B55000E8C5502E3010EA06F5D505E1067
:103C700009E05D06000E5E5AD8805D54000E5E5469
:103C800001E35C6A12009A07000E9B5BD8809A558C
:103C9000000E9B5512009CC19AF19DC19BF1120030
:103CA000D9CFE6FFDACFE6FFE1CFD9FFE2CFDAFFE7
:103CB000E652006801687F0E026E036AD950FA0F5F
:103CC000E96EFF0EDA20EA6EEE500016EE50011695
:103CD000EE500216EE5003166AD800C0EEFF01C087
:103CE000EEFF02C0EEFF03C0EEFFFD0EDB50800BC7
:103CF00002E0010E01D0000EE66E59D8060EE9264C
:103D0000000EEA22E552E750EF6EFC0EDBCF00F02A
:103D1000FD0EDBCF01F0D89000360136FC0E00C05E
:103D2000DBFFFD0E01C0DBFFDB50E66E40D8040E6A
:103D3000E926000EEA22E552E750EE6EED6AFD0E2E
:103D4000DB50006E016AFF0E001818E1015016E109
:103D50002ED8EECF00F0EECF01F0EECF02F0EFCF95
:103D600003F0005001100210031006E0210E0101C3
:103D7000D76FD86B800E0BD0040E09D0FD0EDB5030
:103D800008E115D8EE6AEE6AEE6AEE6A010EDF6EA1
:103D900006D0020EDF6E0BD8EE52EE52EE8EDF50E2
:103DA000E552E552E5CFDAFFE7CFD9FF1200F80E72
:0C3DB000DBCFE9FFF90EDBCFEAFF1200C9
:043DBC00200EF66E71
:103DC000100EF76E000EF86E01010900F550CE6F6F
:103DD0000900F550CF6F03E1CE6701D03DD0090057
:103DE000F550C96F0900F550CA6F0900F550CB6F47
:103DF00009000900F550E96E0900F550EA6E090066
:103E000009000900F550CC6F0900F550CD6F09008D
:103E10000900F6CFD0F1F7CFD1F1F8CFD2F1C9C177
:103E2000F6FFCAC1F7FFCBC1F8FF0101CC5302E195
:103E3000CD5307E00900F550EE6ECC07F8E2CD0750
:103E4000F9D7D0C1F6FFD1C1F7FFD2C1F8FF010108
:0A3E5000CE07000ECF5BBFD71200B3
:063E5A0032503702F3CFE5
:103E60002EF0F4CF2FF03802F3502F26000EF4205E
:103E7000306E32503902F3503026000EF420316E8D
:103E800032503A02F350312633503702F3502F2686
:103E9000F4503022000E312233503802F3503026D5
:103EA000F450312233503902F35031263450370266
:103EB000F3503026F450312234503802F35031267A
:0A3EC00035503702F350312612008E
:063ECA00D9CFE6FFDACFBC
:103ED000E6FFE1CFD9FFE2CFDAFFE652E652D95052
:103EE000FD0F006EFF0EDA2000C0DEFFDD6EDECFBC
:103EF000E9FFDDCFEAFFEF9EFA0EDBCF00F0FB0E0D
:103F0000DBCF01F0FC0EDBCF02F0FD0EDBCF03F0C8
:103F100000C032F001C033F002C034F003C035F00D
:103F2000E552E552E552E5CFDAFFE7CFD9FF1200BF
:103F3000D9CFE6FFDACFE6FFE1CFD9FFE2CFDAFF54
:103F4000E66AD950FA0FE96EFF0EDA20EA6EEECF7C
:103F5000E6FFEECFE6FFEECFE6FFEFCFE6FFE1ECC8
:103F600017F0006E050EE15C02E2E16AE552E16ED7
:0E3F70000050E552E5CFDAFFE7CFD9FF12008F
:023F7E00316AA6
:103F8000306A100EE76ED89034363536303631361A
:103F90003950305C3A50315805E33950305E3A5070
:0A3FA000315A342AE72EF0D7120040
:063FAA00000EF36E00EEB4
:103FB00000F0030E01D81200EA6002D0EE6AFCD7CE
:0A3FC000F350E9601200EE6AFCD72E
:063FCA0012EE00F022EEF1
:103FD00000F0F86A2D9CDEEC1EF00BEC08F050ECC3
:063FE00011F0FBD71200F6
:043FE60001000000D6
:0200000400F00A
:10000000A5030106020303E806A02A2600640019DE
:10001000012C019001F4025802BC032001010101EE
:10002000FFF0F01AF000FFF1FFF2FFF3000200FF13
:1000300000000001000000010000000000000000BE
:00000001FF
