:020000040000FA
:06000000D5EF1CF0120018
:06100000D5EF1CF0120008
:081008009EA200EF1BF09E9276
:0610100017EF08F01200CA
:021016001200C6
:0610180000EF1BF01200C6
:0E1020000100C6390000D401000004000000E9
:02102E0042700E
:1010300042A011005B3E04D05C5005E08B8C05D0D3
:101040005C505B6402D05C3C8B9C82BAFED782AA67
:10105000FED78B8282BAFED782AAFED7000000009C
:101060008B9242AC11000000439E000082BE438E72
:10107000000000000000000000000000439C000091
:1010800082BE438C00000000000000000000000051
:10109000439A000082BE438A000000000000000066
:1010A000000000004398000082BE4388000000005A
:1010B00000000000000000004396000082BE43864E
:1010C0000000000000000000000000004394000049
:1010D00082BE438400000000000000000000000009
:1010E0004392000082BE4382000000000000000026
:1010F000000000004390000082BE43800000446A6C
:10110000456A466A43AE03D04468456846680001B4
:101110004D50516E4E50526E4F50536E5050546E53
:1011200049504D6E556E4A504E6E566E4B504F6E36
:10113000576E4C50506E586E50AE0BD0551E561E0A
:10114000571E581E552AD8B4562AD8B4572AD8B490
:10115000582A55504702F350006FF450016F575012
:101160004702F350026FF450036F58504802F35097
:10117000046FF450056F56504702F3500127F450A6
:101180000223E86A03230423052358504702F3503F
:101190000327F4500423E86A052355504802F3500E
:1011A0000127F4500223E86A032304230523565041
:1011B0004802F3500227F4500323E86A042305236E
:1011C00057504802F3500327F4500423E86A0523DC
:1011D000D8900037013702370337043705370551F8
:1011E0004C6E04514B6E03514A6E0251496E50AE23
:1011F0000BD0491E4A1E4B1E4C1E492AD8B44A2AFF
:10120000D8B44B2AD8B44C2A5150495E52504A5A4D
:1012100053504B5A54504C5A4350492644504A223A
:1012200045504B2246504C224006000E415A405039
:10123000411003E1428A429C0000000011001200AC
:10124000D9CFE6FFE1CFD9FFFD0EDBCF59F0FE0E7F
:10125000DBCF5AF059505A1002E00400FBD7E55298
:10126000E7CFD9FF1200AC6AAB6AB86AAC84190E3A
:10127000AF6EAB8EAC8A120094EC13F0FE0EDB5016
:10128000A96EA69EA69CA680A85099EF13F0D9CF70
:10129000E6FFE1CFD9FFFD0EDB50A96EFE0EDB505D
:1012A000A86EA69EA69CA684F29E550EA76EAA0EB8
:1012B000A76EA682A6B2FED7A694F28EE552E7CF1D
:1012C000D9FF120021EC15F0FE0EDBCF01F001C0BA
:1012D00000F00150DF6E7FEC14F0010E00C0DBFF68
:1012E000FC0EDBCFE6FFDFCFE6FFD1DFE552E552B4
:1012F000FC0EDB28E66E010EDBCFE6FFC8DFE55211
:10130000E552020EE15C02E2E16AE552E16E99EF1C
:1013100013F021EC15F0FE0EDBCFE6FFADDFE5525A
:10132000DF6EFE0EDB28B3EC13F0E76E010EE7CFA5
:10133000DBFFDF50026E036A036E026A010EDB50B0
:1013400000010224006E000E0320016E00C0F3FFB6
:10135000F46E020EE15C02E2E16AE552E16E99EFA1
:1013600013F094EC13F09EA8FED7FE0EDB50AD6E8A
:1013700099EF13F00D0E88EC13F00A0E88EF13F0BE
:1013800094EC13F0FE0EDB50090804E2FE0EDB5075
:10139000370F03D0FE0EDB50300F99EF13F094ECB3
:1013A00013F0FE0EDB380F0B0F0B0101246FFE0E46
:1013B000DB500F0B256F24C1E6FFE2DFE55288EC1E
:1013C00013F025C1E6FFDCDFE55288EC13F099EF5E
:1013D00013F094EC13F0FE0EDBCF01F001C000F02F
:1013E000016A0050E66EDBDFE5527FEC14F000503E
:1013F000E66ED5DFE552200E88EC13F099EF13F07E
:1014000094EC13F00101C46BC56BC66BE1502AEC80
:1014100014F004E1300E88EC13F032D032EC14F00A
:1014200009E18DEC13F0640E005E84EC15F001010F
:10143000C42BF4D7640E19EC15F00101C40732EC8B
:1014400014F009E18DEC13F00A0E005E84EC15F047
:101450000101C52BF4D70A0E19EC15F00101C507DF
:1014600032EC14F008E18DEC13F0000684EC15F07A
:101470000101C62BF5D7010E19EC15F00101C607C5
:1014800099EF13F055EC15F0300E0101C45D02E147
:10149000200EC46FDF6A030EDF5C03E209EC15F077
:1014A000FAD7E55299EF13F055EC15F0010EDF6E07
:1014B000030EDF5C03E209EC15F0FAD7E55299EF71
:1014C00013F021EC15F0640E006E016A6FEC14F05D
:1014D00000C039F001C03AF031EC17F03450DF6E43
:1014E000640EDF02F350026E036A6FEC14F0F350E7
:1014F000345C006E03503558016E010E00C0DBFFF6
:10150000DFCFE6FFE66ABEDFE552E5522E0E88EC3D
:1015100013F0010EDBCFE6FFE66AC6DFE552E552C7
:10152000020EE15C02E2E16AE552E16E99EF13F02E
:1015300021EC15F0DE52800EDD6EDF6A080EDF5CF6
:1015400016E2010EDBCFE6FFFE0EDB50E552E7149C
:1015500002E0310E01D0300E88EC13F0010EDB40BA
:101560007F0BE76E010EE7CFDBFFDF2AE7D7200E08
:1015700088EC13F0020EE15C02E2E16AE552E16EF2
:1015800099EF13F021EC15F00101010EBA6F020E74
:10159000ACEC13F08B84948482B423D05DEC19F00E
:1015A00082A4FED788EC14F0B4EC19F0F3CFDEFF80
:1015B000F4CFDDFFDFDE460E6FEC15F0DECFE6FF89
:1015C000DDCFE6FFD4EC14F00101C2050AE10A0EFA
:1015D000E66EDECFE6FFDDCFE6FF74DEE552E552D4
:1015E000E5529494020EE15C02E2E16AE552E16E9A
:1015F00099EF13F00101986B996B8D6B8E6B896B72
:101600008A6B966B976B8B6B8C6B876B886B5D6A49
:101610005E6A120094EC13F0E1502AEC14F007E13A
:10162000010EF36EFD0EF3CFDBFFFE0EDB6AFD0E47
:10163000DBCF9CF1FE0EDBCF9DF101019DC19CF142
:101640009D6B346A010E356EBFEC14F0AFEC1CF0EC
:1016500034C09EF135C09FF19CC19AF19DC19BF1B0
:101660008DEC13F000C0F3FF01C0F4FF99EF13F00D
:1016700094EC13F0FD0EDBCF92F1FE0EDBCF93F175
:1016800078EC15F0F3CF98F1F4CF99F199EF13F0CE
:1016900094EC13F0FD0EDBCF94F1FE0EDBCF95F151
:1016A00078EC15F0F3CF96F1F4CF97F199EF13F0B2
:1016B00021EC15F09FDF0101A751050A2BE0010A7B
:1016C00011E0070A2DE0010A06E0030A29E1010EF4
:1016D000E66EE66A04D07DC1E6FF7EC1E6FF73ECEC
:1016E00015F01ED0C907C951000802E27A5118E16D
:1016F000C75104E0010E88EC15F004D0010EE66E2F
:10170000E66AB6DFE552E5520101010EC86F030E2D
:10171000C96F06D0FE0EDB50D8808F55E8245C6E72
:10172000020EE15C02E2E16AE552E16E99EF13F02C
:1017300061DF0101A751050A18E0010A0AE0060A63
:1017400003E0030A12E012007FC1E6FF80C1E6FF5A
:101750000FD0C85107E0C75102E0000E01D0010EC2
:10176000C76FC86B050EC96F1200010EE66EE66A00
:101770008FDFE552E552120094EC13F00E0EE126D5
:101780000A0EDB6A0B0EDB6A800EF36E0C0EF3CFD3
:10179000DBFF3F0EF36E0D0EF3CFDBFFFB0EDBCF57
:1017A00033F0FC0EDBCF34F0FD0EDBCF35F0FE0E58
:1017B000DBCF36F0FBEC14F0020EF36E060EF3CF27
:1017C000DBFF070EDB6A080EDB6A090EDB6A42EC00
:1017D00013F0DAEC15F06CEC13F0030EA2EC13F03E
:1017E000040EECEC14F0DBEC15F06CEC13F0050ED1
:1017F000A2EC13F0060EECEC14F0DAEC15F06CEC45
:1018000013F0070EA2EC13F0080EECEC14F0DBEC76
:1018100015F048EC15F03BEC15F091EC14F00E0EC1
:10182000E15C02E2E16AE552E16E99EF13F094ECBB
:1018300013F0050EE12601017A5127E0D950FD0F82
:10184000E96EFF0EDA20EA6EFF0EEE1802E1FF0EDF
:10185000ED181BE0D9502AEC14F017E08DEC13F0D2
:10186000D890015004E62C0E005C010E01580DE3E7
:10187000FD0EDBCF02F0FE0EDBCF03F0033407E2F8
:1018800002505408240E035402E2000E7ED1006A76
:10189000016A026A400E036E00C0E6FF01C0E6FF67
:1018A00002C0E6FFE66EDA0E106E0F0E116EC90E64
:1018B000126E400E136E6FEC14F0ACEC15F09AEC57
:1018C00014F0E3EC14F010C033F011C034F012C087
:1018D00035F013C036F0C4EC16F025EC15F0386A7C
:1018E0007C0E396E120E3A6E470E3B6E71EC16F09E
:1018F000A3EC14F033C0E6FF34C0E6FF35C0E6FFCA
:1019000036C0E6FF39DFE552E552E552E552E552D1
:10191000E7CF03F0E552E7CF02F0C6EC14F032C097
:1019200004F033C005F034C006F035C007F032C013
:1019300038F033C039F034C03AF035C03BF02EEC0B
:1019400015F0C4EC16F033C00CF134C00DF135C005
:101950000EF136C00FF1386A396A3A6A470E3B6EAB
:10196000C4EC16F0A2EC17F034C047F035C048F0D4
:10197000496A4A6A4B6A4C6A4D6A4E6A4F6A506AB3
:10198000516A526A536A546A429A060E9DEC13F0E9
:10199000F3CF40F0F4CF41F0428C9D9042AAFED7A5
:1019A000429C9D80E6EC13F0A3EC14F0E6EC13F0FF
:1019B0009AEC15F0C4EC16F066EC15F0F0EC13F0B0
:1019C0009AEC14F0F0EC13F033C018F034C019F0B6
:1019D00035C01AF036C01BF0E3EC14F014C033F03D
:1019E00015C034F016C035F017C036F0C4EC16F050
:1019F00033C010F034C011F035C012F036C013F00F
:101A0000E3EC14F004C033F005C034F006C035F048
:101A100007C036F0DBEC15F033C000F034C001F045
:101A200035C002F036C003F0E6EC13F033C024F00A
:101A300034C025F035C026F036C027F0F0EC13F0A6
:101A400033C028F034C029F035C02AF036C02BF05E
:101A5000E3EC14F024C033F025C034F026C035F098
:101A600027C036F0C4EC16F033C020F034C021F0AB
:101A700035C022F036C023F00CC138F00DC139F06A
:101A80000EC13AF00FC13BF0C4EC16F033C01CF0AD
:101A900034C01DF035C01EF036C01FF0E3EC14F06A
:101AA0002EEC15F0DAEC15F033C008F134C009F172
:101AB00035C00AF136C00BF1D1EC17F032C0DEFFB1
:101AC00033C0DEFF34C0DEFF35C0DDFFDD52DD5246
:101AD000D9EC14F0EECF00F0EECF01F0EECF02F033
:101AE000EFCF03F00C0ECDEC14F0FDE144EC14F05C
:101AF000FD0EDBCF04F0FE0EDBCF05F0B00E0426AA
:101B0000040E0522066A076A04C032F005C033F0ED
:101B100006C034F007C035F0DFCF37F0010EDBCF61
:101B200038F0020EDBCF39F0030EDBCF3AF064EC75
:101B300014F00B0ECDEC14F0FDE144EC14F0D9ECF4
:101B400014F0D880FF0EEE54000EEE54000EEE544A
:101B5000000EEE5406E2DE68DE6ADE6ADD6ADD5201
:101B6000DD52000EDB50E76E040EE7CFDBFFDBCF6C
:101B700000F001018F51D880005405E2040EDBCF44
:101B8000E6FF96DDE552040EDB50006E050EE15CCB
:101B900002E2E16AE552E16E005099EF13F0080E9F
:101BA0009DEC13F0F3CF6CF1F4CF6DF1200E9DECB2
:101BB00013F0F3CF6EF1F4CF6FF1220E9DEC13F022
:101BC000F3CF70F1F4CF71F1240E9DEC13F0F3CF4D
:101BD00072F1F4CF73F1260E9DEC13F0F3CF74F194
:101BE000F4CF75F1280E9DEC13F0F3CF76F1F4CF1E
:101BF00077F12A0E9DEC13F0F3CF78F1F4CF79F161
:101C0000100E9DEC13F0F3CF10F1F4CF11F1120E82
:101C10009DEC13F0F3CF12F1F4CF13F1140E9DEC01
:101C200013F0F3CF14F1F4CF15F1160E9DEC13F071
:101C3000F3CF16F1F4CF17F1180E9DEC13F0F3CF9C
:101C400018F1F4CF19F11A0E9DEC13F0F3CF1AF13D
:101C5000F4CF1BF10C0E9DEC13F0F3CF8FF10E0EB1
:101C60009DEC13F0F3CF90F1120094EC13F097DF9A
:101C70008DEC13F001016E51001805E16F51011850
:101C800002E1100E31D08DEC13F07051001805E117
:101C90007151011802E1120E27D08DEC13F0725130
:101CA000001805E17351011802E1140E1DD08DECEE
:101CB00013F07451001805E17551011802E1160E78
:101CC00013D08DEC13F07651001805E1775101180F
:101CD00002E1180E09D08DEC13F07851001810E1D4
:101CE000795101180DE11A0EE66EFB0EDBCFE6FF0F
:101CF000FC0EDBCFE6FF62EC09F0E552E552E5525F
:101D000099EF13F001016AC183F1846BFF0E831711
:101D1000000E84170A0E8403F3CF84F18303F3CFFC
:101D200083F1F4508427FF0E6915856F866B0A0EC8
:101D30008603F3CF86F18503F3CF85F1F450862730
:101D4000120094EC13F0FAEC13F00A0EACEC13F062
:101D50005D6A5E6AFE0EDBCF81F14CDC0101010E93
:101D6000A06FD0DF99EF13F094EC13F00101C16B79
:101D70003AEC14F0030FB8EC13F0EFCF02F03AECAA
:101D800014F0020FB8EC13F0EFCF01F07EEC15F079
:101D9000EFCF00F03AEC14F0B8EC13F0EF50001075
:101DA0000110021030E07A6B5C5108E03AEC14F05C
:101DB000B8EC13F0EF5002E0010EC16F5D5106E088
:101DC0007EEC15F0EF5002E0010EC16F585109E0B2
:101DD0003AEC14F0020FB8EC13F0EF5002E0010EF1
:101DE000C16F595109E03AEC14F0030FB8EC13F04D
:101DF000EF5002E0010EC16FC15104E0E66858DC0B
:101E0000E55201D095DC99EF13F0E6EC19F0060EDF
:101E100001016B5D01E0CFD0C2DE0101671D01E170
:101E2000681D2CE06C51671902E16D51681926E0BC
:101E30006E51671902E16F51681920E070516719FE
:101E400002E1715168191AE07251671902E1735188
:101E5000681914E07451671902E1755168190EE0B0
:101E60007651671902E17751681908E078516719CE
:101E700001E089D07951681901E085D06651110AD5
:101E800001E179D0010A73E01F0A6FE0010A6BE0FB
:101E9000030A67E0010A58E0070A45E0010A41E049
:101EA000030A3CE0010A32E00F0A28E0010A24E0BC
:101EB000030A19E0010A0FE0070A06E0010A63E0DD
:101EC000030A61E0010A5FD07A6BFAEC0AF00FECCA
:101ED00014F05C6858D07A6B0FEC14F03250331069
:101EE00052E15C6A50D0B5EC14F067C1E6FF68C1FE
:101EF000E6FFBBDEE55208D00C0E01D00E0EE66EFA
:101F0000B5EC14F062EC09F0E55204D0B5EC14F035
:101F10004DEC19F0E552E55242DE35D0010E7A6FF4
:101F20002ED07A6B29D0010E7B6F7C6BEBDEFAEC46
:101F30000AF0FAEC13F083C17DF184C17EF185C112
:101F40007FF186C180F11FD07B6B7C6BFAEC0AF0CD
:101F5000FAEC13F0010E01017D6F7E6B7F6F806BD9
:101F600012D0010E05D0020E03D0030E01D0040ED4
:101F7000E66EE7DE07D0816BFAEC0AF0010E88EC22
:101F800015F0E552E5520101C35115E06651170AFB
:101F90000DE0010A09E0030A05E0010A01E0120070
:101FA000E66A06D0010E03D0020E01D0030EE66EE3
:101FB000DBDEE552120012006D0E376E4E0E386EEB
:101FC000C60E396E410E3A6ED4C132F0D5C133F02F
:101FD000D6C134F0D7C135F077EC1CF02EC0D4F167
:101FE0002FC0D5F130C0D6F131C0D7F1390E010183
:101FF000D427300ED523000ED623D723D6C100F028
:10200000D7C101F00001026A036A005012008CDBA4
:10201000040EE126D1DF026E036A346E03C035F090
:10202000BFEC14F084EC17F032C0DFFF010E33C0B8
:10203000DBFF020EDB6A030EDB6AD9EC14F0EECF95
:1020400004F0EECF05F0EECF06F0EFCF07F005C0BD
:1020500000F006C001F007C002F00001036A0A0E9A
:102060000026000E0122022203220A0E376E386A71
:10207000396A3A6A91EC14F064EC14F02EC0DFFF78
:10208000010E2FC0DBFF020E30C0DBFF030E31C09C
:10209000DBFFDFCF00F0010EDBCF01F000C0F3FF6C
:1020A00001C0F4FF040EE15C02E2E16AE552E16E78
:1020B00040D321EC15F0010181050CE1A0510AE0AB
:1020C00083C189F184C18AF185C187F186C188F114
:1020D000010EE6DB020E0101815D22E1A05120E04C
:1020E000010E896F8A6B0A0E346E356A85C139F02C
:1020F00086C13AF084EC17F032C087F133C088F122
:10210000F5DB32C094F133C095F1F0DB32C092F1CF
:1021100033C093F132C0E6FF33C0E6FF73EC15F035
:10212000030E0101815D0CE1A0510AE0ACEC14F05A
:10213000F3CF89F1F4CF8AF180DB010E0101B0DB2E
:10214000040E0101815D35E1A05133E0ACEC14F0E7
:10215000F3CFDEFFF4CFDDFF010E0101896F8A6B43
:102160006CDBDECF92F1DDCF93F1020E396E3A6A6D
:1021700092C134F093C135F031EC17F034C092F1D4
:1021800035C093F1DECF94F1DDCF95F1020E396EBB
:102190003A6A94C134F095C135F031EC17F034C08F
:1021A00094F135C095F192C1E6FF93C1E6FF73EC5F
:1021B00015F0020EE15C02E2E16AE552E16EB9D28D
:1021C00021EC15F082EC19F00101A451026E036AB2
:1021D000A351006E016AA3C134F001C035F0A4C15F
:1021E00039F003C03AF057EC17F032C0DEFF33C0CD
:1021F000DDFFE4DB013407E20050FF08000E01546C
:1022000002E2DE68DD6ADFCFA6F101018F51D880DE
:10221000A65505E2A6C1E6FF58EC0BF0E552010118
:102220009151A65D02E298EC0BF0020EE15C02E235
:10223000E16AE552E16E7DD2BFC100F0C0C101F09C
:10224000030E396E3A6ABFC134F0C0C135F0AFEC4D
:102250001CF030C000F031C001F03050311003E10B
:102260000101030EBA6F10C1E6FF11C1E6FF07DBE3
:1022700001011C6F12C1E6FF13C1E6FF00DB010183
:102280001D6F14C1E6FF15C1E6FFF9DA01011E6FEB
:1022900016C1E6FF17C1E6FFF2DA01011F6F18C190
:1022A000E6FF19C1E6FFEBDA0101206F1AC1E6FF74
:1022B0001BC1E6FFE4DA0101216F91511C5D11E2BF
:1022C00091511D5D0EE291511E5D0BE291511F5D1A
:1022D00008E29151205D05E29151215D02E298EC06
:1022E0000BF0120021DAE652DF6AFE0EDB50DF5CF3
:1022F00004E22A0E0DDADF2AF8D7E5521AD20101DC
:102300006B6B666B676B686B5C6B5D6B586B596B6B
:102310001200BAEC09F0520EFBD9530EF9D9530E44
:10232000F7D9490EDCDB0101A351A1DB530EF0D933
:102330004E0EEED9520ED3DB0101A45137EF15F04A
:10234000F3D9060EE1267E6A7F6A93688A68429E08
:10235000429C50DA800E946E850ECD6ED10ECF6EFB
:10236000200ECE6E9F809D807C0ECA6E0F0EBD6EBD
:10237000010EB96E090ECB6EB66A800EB76E050EF1
:10238000BE6E9F829D82F28CD08EF28E33EC09F06D
:10239000BAEC09F0560EBCD9010EE5D9300FB8D908
:1023A0002E0EB6D9020EDFD9300FB2D9BAEC09F031
:1023B000490EAED98EEC18F0520EAAD9A5EC18F041
:1023C000640ECAD9500EA4D963EC19F0640EC4D9B6
:1023D000530E9ED93EEC19F0640EBED9540E98D916
:1023E0000A0EABD90CDA2C0EBED9E66EE66A68ECA2
:1023F0001AF0E552E552E552E5520A0E9ED9FFD990
:10240000D3DABAEC09F0440E83D99AEC19F0520EE3
:102410007FD9DEEC19F0C80E9FD98B9C429A429C62
:10242000429E0101A16B7A6B816BC36B1E0E9BD91F
:10243000BAD904E6020E005C000E015805E2010E56
:1024400001017D6F7E6B05D034DA32C07DF133C07F
:102450007EF11F0E88D9A7D904E6020E005C000E9B
:10246000015805E2010E01017F6F806B05D021DA72
:1024700032C07FF133C080F11C0E75D9006E016A45
:10248000016E006A00C0E6FFE66E1D0E6CD97EDAB2
:1024900001010024696F000E01206A6FDE6ADD6AA7
:1024A0008DDAD890015004E6100E005C000E015841
:1024B00015E284DA300E002456D9E66EDECFE9FF4D
:1024C000DDCFEAFFA90EE926010EEA22E552E75028
:1024D000EF6EDF2A010EE4E3DB2AE2D7030E43D9D5
:1024E0000101A26F2D0E3FD90101A86F2E0E3BD91D
:1024F0000101C26F040E37D90101A76FA251080A6A
:1025000021E00F0A1DE0010A18E0030A13E0010AA6
:102510000CE0070A08E0010A04E0030A15E1010ED5
:1025200005D0020E03D0030E01D0040EE66E09DCC6
:10253000E5520AD0010EA16F07D0010E7A6F04D0C8
:102540007A6B02D0010EC36FCFEC0DF0FF0E0101CC
:102550006C250101D46F150E01016D210101D56FAC
:10256000D66BD76B5C68E80E5D6E030E5E6ED0D9DD
:10257000BAEC09F0010190518F5D916F0101815119
:1025800001E097DD0101A15101E01ADE01017A515C
:1025900002E052DE02D00A0EDFD837DC0101A8517A
:1025A000050A40E0010A36E0070A26E0010A0CE0CD
:1025B000020A02E0010A4EE1BAEC09F001011C51E5
:1025C000EBD81CC1E6FF2CD0515144E0BAEC09F025
:1025D0005EC1E6FF5FC1E6FFCDD960C1E6FF61C124
:1025E000E6FFC8D962C1E6FF63C1E6FFC3D964C193
:1025F000E6FF65C1E6FF0AD0060E6B5D2BE19EDAB1
:1026000067C1E6FF68C1E6FFB5D9AFD9E9EC09F0CB
:10261000E5521FD07EDE0101A65129DAA6C1E6FFF0
:1026200061DE17D0060E6B5D15E188DA5CC1E6FF4E
:1026300098EC0AF0E5525DC1E6FF98EC0AF0E5522D
:1026400058C1E6FF98EC0AF0E55259C1E6FF98EC54
:102650000AF0E55254DEC2EC0AF00101BF2B000E75
:10266000C023F40ED880BF55010EC05501E386D7B4
:10267000BF6BC06B82EC19F04CDEB4EC19F0BFD824
:1026800093D97CD7F8D9020EDBCF08F0030EDBCF4D
:1026900009F0040EDBCF0AF0050EDBCF0BF0060EBF
:1026A000DBCF10F0070EDBCF11F0080EDBCF12F0FE
:1026B000090EDBCF13F010C032F011C033F012C09E
:1026C00034F013C035F0C1EC15F034DA71EC16F0CB
:1026D000FDD979D92EEF15F0DBD9020EDBCF33F01F
:1026E000030EDBCF34F0040EDBCF35F0050EDBCF6D
:1026F00036F012DA80D9060EDBCF32F0070EDBCFD0
:1027000033F0080EDBCF34F0090EDBCF35F01200CA
:10271000E66EB1EC09F0E5521200FD0EDBCF00F0E1
:10272000FE0EDBCF01F01200D9CFE6FFE1CFD9FFDB
:102730001200E552E7CFD9FF1200E66E89EC09F0EE
:10274000E552120001DA2EC032F02FC033F030C053
:1027500034F031C035F01200E66EE66A20EC09F084
:10276000E552E5521200E66E3CEC09F0E55212002B
:10277000EA6AA90FE96E010EEA221200FD0E00C0FE
:10278000DBFFFE0E01C0DBFF1200DF50EA6AC40F60
:10279000E96E010EEA221200E66EE66A42EC0AF0E9
:1027A000E552E5521200E66ED950040FE96EDACF19
:1027B000EAFFE552E750EE6EED6A040EDBCF00F063
:1027C000050EDBCF01F0D890015012004DC032F061
:1027D0004EC033F04FC034F050C035F0C1EF15F0AB
:1027E00051C032F052C033F053C034F054C035F011
:1027F000C1EF15F0010E8CD9E552E5521200F3CF6E
:1028000000F0F4CF01F0F3CFE6FFF4CFE6FF1200C3
:10281000FD0EDBCFE6FFFE0EDBCFE6FF12000A0E59
:10282000346E356A69C139F06AC13AF084EC17F048
:1028300032C05DF033C05EF0120085C1E6FF86C194
:10284000E6FF07EC10F0E552E552F3CF87F1F4CF45
:1028500088F11200FD0FE96EFF0EDA20EA6EEE50ED
:10286000ED101200FD0EFE0EDBCF01F00001800E18
:1028700001141200FE0EDB50040DF350120017EC91
:102880000CF0E552E552120000C0DFFF010E01C05E
:10289000DBFF020E02C0DBFF030E03C0DBFF1200F2
:1028A000946F956B926F936BE66E93C1E6FF73EF37
:1028B00015F00A0E346E356A040EDBCF39F0050EC2
:1028C000DBCF3AF057EF17F077EC1CF02EC000F09A
:1028D0002FC001F030C002F031C003F01200FD0E35
:1028E000DBCF34F0FE0EDBCF35F012000A0E346E73
:1028F000356A83C139F084C13AF084EF17F0FF0ED6
:10290000E76EFD0EDBCF00F0E7500016016A120003
:10291000D00EE66E070EE66E20EC09F0E552E552A9
:10292000120000C032F001C033F002C034F003C026
:1029300035F0120033C014F034C015F035C016F075
:1029400036C017F0120033C008F034C009F035C0AB
:102950000AF036C00BF0120083C1E6FF84C1E6FF27
:1029600007EC10F0E552E552120069C1E6FF6AC1BA
:10297000E6FF1200E9EC09F0E552E5521200FD0E07
:10298000DBCF39F0FE0EDBCF3AF01200E552E7CF95
:1029900001F0E552E7CF00F01200D8900332023286
:1029A00001320032E806120061EC0AF0E552E5520D
:1029B0001200D9CFE9FFDACFEAFF1200DECF00F034
:1029C000DDCF01F0120033C038F034C039F035C02B
:1029D0003AF036C03BF01200B7D8060E2EC0DBFF2F
:1029E000070E2FC0DBFF080E30C0DBFF090E31C021
:1029F000DBFF42EF13F090D8020E33C0DBFF030E73
:102A000034C0DBFF040E35C0DBFF050E36C0DBFF34
:102A10001200BBDEEF50E66EC0EC09F0E552E66E48
:102A2000B4DEE552E750EF6EB0DEEF5071DEDF2A24
:102A30001200E76E72DEE7500026000E0122BEEFA4
:102A400013F072DE020EE126120033C00CF034C027
:102A50000DF035C00EF036C00FF0120000C033F09C
:102A600001C034F002C035F003C036F0120094DE2D
:102A7000200E88EF13F00A0EDBCF00F00B0EDBCF39
:102A800001F00C0EDBCF02F00D0EDBCF03F01200D5
:102A90000A0E33C0DBFF0B0E34C0DBFF0C0E35C05B
:102AA000DBFF0D0E36C0DBFF12003EDEE652B0DE6D
:102AB00000EC0AF0E552E552120008C033F009C0FC
:102AC00034F00AC035F00BC036F0120033C004F009
:102AD00034C005F035C006F036C007F0120018DE2D
:102AE0003D0E88EF13F038EC0BF0E552E552120082
:102AF0008FDE0AEC0BF0E552E5521200FE0EDB50C1
:102B0000040DF328B8EF13F0000E015ABEEF13F0D6
:102B1000E66EE66A48EF0BF0FB0EDBCF38F0FC0EFA
:102B2000DBCF39F0FD0EDBCF3AF0FE0EDBCF3BF012
:102B3000C4EF16F08ADF47DF5DEF15F0BAEC09F05D
:102B40000101665137EF15F0376E386A396A3A6A13
:042B500077EF1CF00F
:0C2B54002D9E08D02D9E35AE05D0346CAF
:102B6000351EE86A35222D8E35C02FF034C02EF088
:102B70003F6A3E6A8E0E306E316A24EF18F02D9E49
:102B80000CD02D9E35AE09D0326C331E341E351E4E
:102B9000E86A3322342235222D8E35C02FF034C01E
:102BA0002EF033C03FF032C03EF09E0E306E316AE0
:102BB00024EF18F03B7E2D6A60EC18F078EC18F0EA
:102BC0002DB608EF18F02DA20AD02DAA03D02DBEE5
:102BD00008EF18F02DA414EF18F011EF18F02DAA3B
:102BE00005D02DAC14EF18F011EF18F02DA00AD07D
:102BF0002DA808D02DBE04D02DA402D01DEF18F0B2
:102C000021EF18F03E6A316A3B50365C3D6E10E3AE
:102C100033C03FF034C02EF035C02FF036C03CF04A
:102C200038C033F039C034F03AC035F02D3A09D00D
:102C300038C03FF039C02EF03AC02FF03BC03CF016
:102C40003D6C2D9E2DBC2D8E3CC030F02DB050EF34
:102C500018F01A0E3D6050EF18F0306A366A2DA455
:102C600008D0336C341E351E361EE86A34223522F5
:102C700036222DAC08D03F6C2E1E2F1E301EE86A67
:102C80002E222F223022326A3D5207E0363435326E
:102C90003432333232323D2EF9D733503F2634505E
:102CA0002E2235502F223650302232C03EF02D9E3B
:102CB00030AE0BD03E6C3F1E2E1E2F1E301EE86A1B
:102CC0003F222E222F2230222D8E30A006D0D880F7
:102CD0002F322E323F323E323C2A3CC030F024EFBD
:102CE00018F02D6A60EC18F078EC18F02DB608EFAB
:102CF00018F02DA205D02DBA08EF18F00FEF18F03C
:102D00002DBA1BEF18F02DA005D02DB808EF18F044
:102D10001BEF18F02DB80FEF18F0316A7F0E362434
:102D2000306EE86A31223B50305EE86A315A1A0E42
:102D30003C6E366A3E6A3F6A2E6A2F6A3850335EAE
:102D40003950345A3A50355A000E365A09E738503D
:102D50003326395034223A503522000E362201D023
:102D60003E8AD8903336343635363636D8903E36AD
:102D70003F362E362F363C2EE1D7355034103310E7
:102D8000D8A43E8A24EF18F02D6A60EC18F078EC95
:102D900018F02DB608EF18F02DA205D02DB808EFC9
:102DA00018F00FEF18F02DAA05D02DB008EF18F08D
:102DB0000FEF18F02DB002D02DA802D01BEF18F0A5
:102DC000316A3B503624306EE86A31227E0E305E26
:102DD000E86A315A3E6A3F6A2E6A2F6A3A503502D3
:102DE000F4CF2FF0F3CF2EF039503502F3503F26B9
:102DF000F4502E22000E2F223A503402F3503F2678
:102E0000F4502E22000E2F2238503502F3503E2669
:102E1000F4503F22000E2E222F2239503402F3505C
:102E20003E26F4503F22000E2E222F223A5033022B
:102E3000F3503E26F4503F22000E2E222F2238500F
:102E40003402F4503E26000E3F222E222F2239500B
:102E50003302F4503E26000E3F222E222F2224EF72
:102E600018F02C6A3AAE3AEF17F0396C3A1EE86A5D
:102E70003A222C1E35AE42EF17F0346C351EE86A4C
:102E800035222C1EAFEC1CF035BE52EF17F02CAEE5
:102E9000000C346C351EE86A3522306C311EE86A4D
:102EA0003122000C2CBE49EF17F02D88FF0C35C0E5
:102EB0003FF034C03EF034503902F4CF33F0F3CF5A
:102EC00032F035503A02F4CF35F0F3CF34F0390216
:102ED000F3503326F4503422E86A35223E503A0249
:102EE000F3503326F4503422E86A35223AAE7DEFAF
:102EF00017F03E50345E3F50355A3FAE000C39500B
:102F0000345E3A50355A000C34C03EF03450390229
:102F1000F4CF33F0F3CF32F035503A02F4CF35F03E
:102F2000F3CF34F03902F3503326F4503422E86AF8
:102F300035223E503A02F3503326F4503422E86AE8
:102F40003522000C2D6A60EC18F02DB6ACEF17F0AE
:102F50002DA20ED02DB405D07F0E356EFF0E346E2F
:102F60001FD0800E356E346A1BD0356A346A18D093
:102F70002DB0FBD78F0E3660EDD77E0E3664F5D7B9
:102F80008E0E365C05E0D89035323432362AF8D7CA
:102F90002DA406D0346C351EE86A352235AEE5D74F
:102FA00012002D6A60EC18F02DB6DBEF17F02DA2A1
:102FB0000FD02DB407D07F0E356EFF0E346E336EFA
:102FC000326E25D0800E356E01D0356A000EF6D7F0
:102FD0002DB0FBD7326A9F0E3660EBD77E0E36647B
:102FE000F4D79E0E365C07E0D89035323432333257
:102FF0003232362AF6D72DA40AD0326C331E341E54
:10300000351EE86A33223422352235AEDED712006F
:103010007F0E366EFF0E356E346E336E12007F0EED
:103020002DBEFF0E366E02D07F0E366E800E356ED0
:10303000346A336AF3D72DAE04D0800E366E356A0B
:10304000F7D7366A356AF4D72F502E103F103E104E
:10305000F8E031BEF0D72FBE0CD030503110EBE08D
:10306000D8903E363F362E362F363006D8A0310661
:10307000F2D73150D4E13028D2E03EAE11D07F0EED
:103080003E1402E13FA00CD03F2AE86A2E222F22F4
:1030900007E3D8802F322E323F32302A3028BFE06B
:1030A0003050C9E03FC033F02EC034F02F34356EBD
:1030B0003030366E3532369E2DBE368E0EEF18F01D
:1030C0003536363602E32D842D7E06E12D80366AB4
:1030D000356A346A336A1200362803E0D880353204
:1030E0001200D890353202E12D8212002D86120096
:1030F0003A363B3602E32D8C2D7E06E12D883B6A65
:103100003A6A396A386A12003B2803E0D8803A32BA
:0C3110001200D8903A32EAE12D8A120039
:04311C00938C938875
:10312000C00EC76E380EC66EC56A1D0EC86EC69E2E
:10313000A196120065D8F3CF00F0F4CF01F0800E15
:10314000F318F8E10150F6E112008B968B9017DA34
:103150008B8615DA8B8013DA9AEF18F09E96C5806D
:103160009EA6FED79E9612009E96C584C5B4FED735
:103170009E961200D9D9FE0EDB50C96E9E969EA671
:10318000FED7C550400B01E0010E016AF36E01C08D
:10319000F4FF23D2C5869E96C5B6FED7C95012004D
:1031A00020DA640EDE6EDD6AC58AC5889E969E5062
:1031B000080B07E1DAD905E0DF06010EF8E2DB06CD
:1031C000F6D7D3D9020EE15C02E2E16AE552AAD158
:1031D00008DA640EDE6EDD6AC59AC5889E969E503A
:1031E000080B07E1C2D905E0DF06010EF8E2DB06B5
:1031F000F6D7BBD9020EE15C02E2E16AE55292D158
:10320000F0D9E7D9C7DFDE6EDD6AD1D9DECF00F0B5
:10321000DDCF01F0800E0016000E011600C0F3FF96
:1032200001C0F4FF020EE15C02E2E16AE5527AD1EC
:103230007BD9040E7ED9B4D901C000F0016AFF0E1B
:103240000016000E0116020E00C0DBFFFF0EE76E37
:10325000A7D9E7500016016A030E00C0DBFFAAD908
:10326000120E53D97AD9020EC7D9030EC5D984D903
:10327000040EE15C02E2E16AE55254D1350EE66EDD
:10328000820EE66E010EE66E020E42D9240EE66E46
:10329000E66A020EE66E88EF1AF046D9020E49D9A8
:1032A00089D9200E32D959D9E66A90D965D9020E4A
:1032B000E15C02E2E16AE55235D17CD9210E25D9E3
:1032C000040EF9EF1AF076D9010E1FD9E66A7ED9FD
:1032D000B50EF9EF1AF028D9E6527BD9DF6AFE0E57
:1032E000DB04DF5C07E256DFE66EDF5050D970DFAB
:1032F000DF2AF5D74FDFE66EFE0EDB0448D957D93B
:10330000E5526BD16ED956D9230E58D929C1A5F1F2
:103310002AC1A3F12BC1A4F101012A51006E016A57
:103320002AC1F3FF01C0F4FF020EE15C02E2E16A90
:10333000E552F8D0430EE66EE66A020EE66E010E26
:10334000E7D87C0EE66E920EE66E040EE66E010E77
:10335000DFD8000EE66EE66A050E47D9000EE66E6F
:10336000E66A060EF5EF1AF0DFD8040EE12622D940
:10337000220E24D901012851026E036A28C103F0EC
:10338000026A295100010224006E000E0320016E22
:10339000020E00C0DBFF030E01C0DBFF020EDBCF1D
:1033A00000F0030EDBCF01F000C0F3FF01C0F4FF1B
:1033B000040EE15C02E2E16AE552B4D0010EE66E71
:1033C000E668020EE66E150E88EF1AF00101030E94
:1033D000B96FF0D8240E99D8010E0BD9FAD8DADEDD
:1033E0000101506F9CD80101516F99D80101526FB2
:1033F00096D80101536F93D80101546F90D8010101
:10340000556F8DD80101566F8AD80101576F87D843
:1034100001015C6F84D801015D6F81D80101586F93
:103420007ED80101596F7BD801015A6FC0D80101C4
:10343000535101E1120051514AE054C100F054C10E
:1034400001F0006A01015551010100245E6F000E78
:1034500001205F6F56C100F056C101F0006A010102
:10346000575101010024606F000E0120616F5CC1A3
:1034700000F05CC101F0006A01015D51010100240E
:10348000626F000E0120636F58C100F058C101F057
:10349000006A0101595101010024646F000E0120EE
:1034A000656F010156390F0B0F0B01016B6F060E93
:1034B0006B5D0DE11F0E010157150101666F62C1C1
:1034C00067F163C168F164C169F165C16AF1120015
:1034D0002BD8FD0EDBCFE6FFFE0EDBCFE6FF070E9F
:1034E00084D8FB0EDBCFE6FFFC0EDBCFE6FFD5DE9C
:1034F000E552E552F40EE66E010EE66E20EC09F0A0
:10350000E552E55231DFFEDE68D0E66EE6EF1AF0F6
:10351000E66E8EDEE552E552E552E552120058DEC7
:10352000CAEF18F0E16E59D0D9CFE6FFE1CFD9FF4D
:103530001200E126FE0EDBCF01F001C000F00150C9
:10354000DF6EFF0EE76EFD0EDBCF00F0E7500016DA
:10355000016A010E00C0DBFF1200E66A37D8DFCF38
:10356000E6FF34D8010EFCEF1AF0D9CFE9FFDACF2D
:10357000EAFFEE50ED101200F7DD9AEF18F0080E9A
:10358000E66EE66A20EC09F0E552E5521200EA6ABE
:10359000260FE96E010EEA22E552E750EF6E1200A7
:1035A000FB0EDBCF00F0FC0EDBCF01F01200F8DDEC
:1035B000B4EF18F0D3DD220E85EF1AF0A6DF010E6E
:1035C00018D8080EE66E87DEE5521200D3DDE5520C
:1035D0001200C4DD230E85EF1AF0E552E7CFD9FFC4
:1035E0001200A2DF020EE1261200E66E110E88EF35
:1035F0001AF08BDFBCEF1AF0DBCFE6FFE6EF1AF034
:10360000DACFE4FFE2CFDAFFE9CFE4FFEACFE4FF6D
:10361000F6CFE4FFF7CFE4FFF5CFE4FFF3CFE4FF0D
:10362000F4CFE4FFFACFE4FF00EE2CF0140EE80430
:1036300003E3EECFE4FFFBD700EE00F02C0EE8042E
:1036400003E3EECFE4FFFBD7E6529EA01BD09E9093
:10365000D10ECF6E200ECE6E59505A1003E059068F
:10366000000E5A5A0101B95105E08B98B907B951BA
:1036700001E18B88BA5105E08B94BA07BA5101E198
:103680008B8424D8E55200EE2BF02C0EE80403E3E3
:10369000E5CFEDFFFBD700EE3FF0140EE80403E3A7
:1036A000E5CFEDFFFBD7E5CFFAFFE5CFF4FFE5CFA0
:1036B000F3FFE5CFF5FFE5CFF7FFE5CFF6FFE5CF69
:1036C000EAFFE5CFE9FFE5CFDAFF110001019851EC
:1036D00099113AE0A06B010E981904E1995102E1A9
:1036E0005C682CD0010E9C1907E19D5105E15C2A14
:1036F000FF0E5C5C29E122D09C519D1118E19A07D4
:10370000000E9B5B5C50016A9E25006E9F5101225A
:10371000FF0ED8800054000E015402E25C680ED007
:103720005C50006E016A5C509E255C6E0DD083D8A3
:103730000BE389D85C2AFF0E5C5C06E1986B996B01
:1037400089C18DF18AC18EF18D518E111DE08D07D9
:10375000000E8E5BD8808D55000E8E5515E395C1F9
:103760009CF19D6B346A010E356E94C139F095C1A0
:103770003AF0AFEC1CF034C09EF135C09FF163D835
:1037800094C196F195C197F101019651971139E0D5
:10379000010E961904E1975102E15C6A2CD0010EEA
:1037A0009C1909E19D5107E15C5025E05C065C50E5
:1037B000000827E320D09C519D1114E19A07000EC8
:1037C0009B5B9E515C5C000E9F550AE35C50036A54
:1037D0009E515C5C006E9F51035800505C6E11D08E
:1037E0005C6A09D028D804E32ED85C5001E05C065E
:1037F0005C50000806E3966B976B87C18BF188C11C
:103800008CF18B518C110AE08B07000E8C5BD880F9
:103810008B55000E8C5502E3010EA06F5D505E10BB
:1038200009E05D06000E5E5AD8805D54000E5E54BD
:1038300001E35C6A12009A07000E9B5BD8809A55E0
:10384000000E9B5512009CC19AF19DC19BF1120084
:10385000200EF66E100EF76E000EF86E01010900D4
:10386000F550CF6F0900F550D06F03E1CF6701D05D
:103870003DD00900F550CA6F0900F550CB6F090023
:10388000F550CC6F09000900F550E96E0900F550BC
:10389000EA6E090009000900F550CD6F0900F550E6
:1038A000CE6F09000900F6CFD1F1F7CFD2F1F8CFF2
:1038B000D3F1CAC1F6FFCBC1F7FFCCC1F8FF0101BC
:1038C000CD5302E1CE5307E00900F550EE6ECD076F
:1038D000F8E2CE07F9D7D1C1F6FFD2C1F7FFD3C1C5
:0E38E000F8FF0101CF07000ED05BBFD712002A
:0238EE00325056
:1038F0003702F3CF2EF0F4CF2FF03802F3502F26FB
:10390000000EF420306E32503902F3503026000E93
:10391000F420316E32503A02F350312633503702E0
:10392000F3502F26F4503022000E3122335038024B
:10393000F3503026F450312233503902F3503126FF
:1039400034503702F3503026F450312234503802CC
:0E395000F350312635503702F3503126120065
:02395E00316ACC
:10396000306A100EE76ED890343635363036313640
:103970003950305C3A50315805E33950305E3A5096
:0A398000315A342AE72EF0D7120066
:06398A00000EF36E00EEDA
:1039900000F0030E01D81200EA6002D0EE6AFCD7F4
:0A39A000F350E9601200EE6AFCD754
:0639AA0012EE00F022EE17
:1039B00000F0F86A2D9C28EC1CF00BEC08F0A0EC51
:0639C00011F0FBD712001C
:0439C60001000000FC
:0200000400F00A
:10000000A5030406020303E800002A260064001981
:10001000012C019001F40000000000000101010129
:10002000FFF0F01AF000FFF1FFF2FFF3000100FF14
:1000300000000001000000010000000000000000BE
:00000001FF
